:100000000C94AD000C94D5000C94D5000C948C0D80
:100010000C948C0D0C948C0D0C94D5000C94D50084
:100020000C94D5000C94D5000C94D5000C94D500FC
:100030000C94D5000C94D5000C94D5000C94D500EC
:100040000C94140C0C94D5000C94500B0C942A0BAB
:100050000C94D5000C94D5000C94D5000C94D500CC
:100060000C945E0C0C94D500E916D516C116AD168D
:100070009916851671165D16651678168B169E16DE
:10008000B116C416D716EA164916351621160D16DE
:10009000FD161117251739176C1680169416A81619
:1000A000BC16D016E416F8161A163F1664168916F2
:1000B000AE16D316F8161D17000000002500280004
:1000C0002B0000000000240027002A000404040480
:1000D00004040404020202020202030303030303F2
:1000E00001020408102040800102040810200102CF
:1000F00004081020052A9B29912987291D291329E5
:1001000009299F2803290C2916291F2989299229A1
:100110009C29052A95288B28812817280F2A192A17
:10012000832A8D2A062910291A2984298E2998299B
:10013000022A0C2A1D288F28022914298729992987
:100140000C2A1E2A00000008000201000003040718
:100150000000000000000000D90D11241FBECFEFE9
:10016000D8E0DEBFCDBF12E0A0E0B1E0ECE1F8E204
:1001700002C005900D92A237B107D9F723E0A2E79C
:10018000B2E001C01D92AF3DB207E1F710E0CDEA49
:10019000D0E004C02197FE010E94FC10CC3AD107A8
:1001A000C9F70E94120E0C940C140C94000090E0FD
:1001B000FC01E052FF4F2491FC01E453FF4F849176
:1001C000882399F090E0880F991FFC01EE53FF4FB0
:1001D000A591B491FC01E854FF4F859194918FB79C
:1001E000F894EC91E22BEC938FBF0895009769F09F
:1001F000FC0101900020E9F73197AF01481B590B32
:10020000BC018EE992E00C94550980E090E00895DD
:100210000F931F930E94080C6093A6027093A7028D
:100220008093A8029093A902E0919E02F0919F0210
:100230000680F781E02D8EE992E0099597FF1FC0B7
:100240000E94080C0091A6021091A7022091A8021A
:100250003091A902DC01CB01801B910BA20BB30BE7
:100260000091A2021091A3022091A4023091A50254
:1002700080179107A207B307B8F28FEF9FEF1F9186
:100280000F9108950E94F9120F931F93CF93DF935C
:10029000EC0188819981009729F02A813B812617FA
:1002A000370788F48B016F5F7F4F0E942F120097F2
:1002B00061F0998388831B830A832C813D81232BE2
:1002C00011F4FC01108281E001C080E0DF91CF9148
:1002D0001F910F910895EF92FF920F931F93CF9369
:1002E000DF93EC017B018A01BA010E94440128815D
:1002F000398181110DC02115310519F0C9010E9404
:100300009711198218821D821C821B821A8206C0D4
:100310001D830C83B701C9010E940713CE01DF9131
:10032000CF911F910F91FF90EF9008950C94F600DC
:100330008F929F92AF92BF920F931F93CF93DF93B1
:10034000CDB7DEB7A1970FB6F894DEBF0FBECDBF15
:1003500019A2423008F44AE08E010F5D1F4F842E2F
:10036000912CA12CB12CA50194010E94DB13E62F46
:10037000B901CA0101501109EA3014F4E05D01C06D
:10038000E95CD801EC93232B242B252B61F7C801C2
:100390000E94F600A1960FB6F894DEBF0FBECDBF47
:1003A000DF91CF911F910F91BF90AF909F908F9051
:1003B0000895CF92DF92EF92FF92CF93DF936B017C
:1003C0007C01E0919E02F0919F020190F081E02D6E
:1003D0006DE28EE992E00995EC0166277727CB0163
:1003E0006C197D098E099F094AE00E9498018C0FC3
:1003F0009D1FDF91CF91FF90EF90DF90CF900895F8
:10040000BC01990F880B990B97FD0C94D9014AE018
:100410000C949801CF93DF930E94F600EC018DE2DB
:1004200091E00E94F6008C0F9D1FDF91CF910895FF
:10043000CF93DF93BC0180E090E04AE00E949801F6
:10044000EC018DE291E00E94F6008C0F9D1FDF9180
:10045000CF910895CF92DF92EF92FF926B017C01D2
:1004600086E090E00E94960D9927F7FC9A958F2DD3
:100470007E2D6D2D87E090E00E94960DB7019927A3
:1004800077FD9095892F88E090E00E94960D6F2D62
:1004900077278827992789E090E0FF90EF90DF90F9
:1004A000CF900C94960DCF93DF934AE00E94980171
:1004B000EC018DE291E00E94F6008C0F9D1FDF9110
:1004C000CF910895FC0180819181009711F00C94E7
:1004D000281360E070E0CB010895CF93DF93FC0117
:1004E00024813581232B71F0FB01DC01CD91DC915E
:1004F00060817181CE010E940E13009719F08C1B50
:100500009D0B02C08FEF9FEFDF91CF910895EF9287
:10051000FF920F931F93CF93DF9300D0CDB7DEB739
:100520008C0169831A82FC01E480F580FFEFEF1AE9
:10053000FF0AB7010E944401882381F0F80120815D
:10054000318184819581BE016F5F7F4F820F931F40
:100550000E940713F801F582E48281E00F900F906A
:10056000DF91CF911F910F91FF90EF900895FC01C3
:10057000808191810C949711FB01DC0111961C92F2
:100580001E9213961C921E92129715961C921E9202
:1005900014978617970749F060817181611571057D
:1005A00021F0448155810C946B010895FC01118266
:1005B000108213821282158214826115710551F026
:1005C000FB0101900020E9F73197AF01461B570B63
:1005D0000C946B010895BF92CF92DF92EF92FF923D
:1005E0000F931F93CF93DF937C016B01EA01890185
:1005F0002417350720F48D2FE901042F182F6FE2FF
:1006000071E0C7010E94D602D60114968D919C918B
:100610001597C817D907C8F58017910708F48C01FA
:10062000D601ED91FC911197E00FF11FB08010827F
:100630004D915C91BA016C0F7D1F6115710561F0E0
:10064000FB0101900020E9F73197AF01461B570BE2
:10065000C7010E946B0113C0F7018081918100974F
:1006600011F00E949711D70111961C921E921596B7
:100670001C921E92149713961C921E921297D601EA
:10068000ED91FC91E00FF11FB082C701DF91CF9196
:100690001F910F91FF90EF90DF90CF90BF90089542
:1006A0008F929F92AF92BF92CF92DF92EF92FF9282
:1006B0000F931F93CF93DF938C01EB01CC80DD80F0
:1006C000C6010197E0E0F0E02FEF3FEF40E050E09F
:1006D000A0E0B0E0BE2EAF2E8E179F0764F1A230CF
:1006E000B1052CF5EF0121967E01EC15FD0560F4B6
:1006F000EB01888099808114910431F0E401CE0FE0
:10070000DF1FC881C03231F0E817F90719F0B22EA7
:10071000A32E09C01196A9014F5F5F4FE817F90793
:1007200011F4BE2CAF2CF7012B2D3A2DD3CFC801DD
:100730000E94EB0207C01297D4F76FE271E0C80184
:100740000E94D602C801DF91CF911F910F91FF90B7
:10075000EF90DF90CF90BF90AF909F908F900895D3
:1007600060E08CE00E94820B61E08AE00E94820BD4
:1007700061E08CE00E94820B60E08CE00C94820BC4
:10078000CF92DF92EF92FF921F93CF93DF93EC0112
:1007900083EC91E00E949601CE010E941802C436BB
:1007A000D10540F4FE01EE0FFF1FEC50FF4FC59145
:1007B000D49113C0CF5DD140CE019695879536E098
:1007C000D695C7953A95E1F7D695DC2FCC27D795E6
:1007D000C7958F719927C80FD91F86ED91E00E94A8
:1007E00096016E01E12CF12C4AE0C701B6010E948E
:1007F000980181EC91E00E94960140E1C701B601A9
:100800000E9498018FE291E00E940A020E94C50DA9
:1008100060E08BE00E94820B0E94C90D0E94C90D0E
:100820000E94C90D0E94B0030E94C90D14E10E94EC
:10083000C90D1150E1F70E94C50D60E08BE00E94E8
:10084000820B0E94C50D60E08BE00E94820B0E942B
:10085000B0030E94C90D0E94C90D0E94C90D0E94DB
:10086000B00310E1C0FF03C00E94B00302C00E94A9
:10087000C90DD695C7951150A9F70E94C90D0E94C0
:10088000C90D0E94C90D0E94C90D0E94C50D60E0EE
:100890008BE00E94820B60E08CE00E94820B60E0A3
:1008A0008AE0DF91CF911F91FF90EF90DF90CF9082
:1008B0000C94820B42E380E090E067E460937C005C
:1008C00020917A00206420937A0020917A0026FDFE
:1008D000FCCF209178005091790030E0352B820FC9
:1008E000931F415059F762E370E00E94D410CB018E
:1008F000770FAA0BBB0B9C01AD012A5531094109A9
:100900005109A3E6B0E00E94991322E830E040E0EC
:1009100050E00E947A13DA01C9010196A11DB11DB0
:1009200008950E94080C6931710550F429E130E006
:10093000A901461B570BBA0180E090E00C94CE0B46
:100940000895CF93DF9300D000D0CDB7DEB780916C
:10095000470390914803099799F4809181029091FF
:100960008202998380918102909182028A8342E07F
:1009700050E0BE016F5F7F4F8BE393E00E94050B59
:1009800080914703909148038130910539F460913B
:100990008B028BE393E00E94190B15C0069799F424
:1009A00080919C0290919D02998380919C029091EC
:1009B0009D028A8342E050E0BE016F5F7F4F8BE370
:1009C00093E00E94050B809147039091480307979D
:1009D00099F480918302909184029983809183029B
:1009E000909184028A8342E050E0BE016F5F7F4FA6
:1009F0008BE393E00E94050B80914703909148039D
:100A0000059769F58091940290919502A0919602C4
:100A1000B0919702B9838091940290919502A09130
:100A20009602B0919702AA838091940290919502C8
:100A3000A0919602B09197029B838091940290912D
:100A40009502A0919602B09197028C8344E050E009
:100A5000BE016F5F7F4F8BE393E00E94050B809197
:100A60004703909148030297B9F580918C029091C9
:100A70008D02A0918E02B0918F02B98380918C0279
:100A800090918D02A0918E02B0918F02AA838091E5
:100A90008C0290918D02A0918E02B0918F029B8367
:100AA00080918C0290918D02A0918E02B0918F0264
:100AB0008C8344E050E0BE016F5F7F4F8BE393E097
:100AC0000E94050B10928C0210928D0210928E02E1
:100AD00010928F0210928B028091470390914803ED
:100AE000039799F48091870290918802998380916D
:100AF0008702909188028A8342E050E0BE016F5FD6
:100B00007F4F8BE393E00E94050B80914703909108
:100B10004803049779F40E9491040E945A0499832F
:100B20008A8342E050E0BE016F5F7F4F8BE393E02A
:100B30000E94050B10924803109247030F900F90EC
:100B40000F900F90DF91CF910895CF93DF93809115
:100B5000890290918A028536910538F18DEE91E0F7
:100B60000E9496018091890290918A020E9400025F
:100B70008EEF91E00E9496018091890290918A0205
:100B80008F5D9140BC017695679536E09695879587
:100B90003A95E1F79695982F8827979587956F71E5
:100BA0007727EC01C60FD71F2BC08DEE91E00E9476
:100BB00096018091890290918A020E94000281EC44
:100BC00091E00E949601E0918902F0918A02EE0F75
:100BD000FF1FE859FF4F6591749180E090E04AE073
:100BE0000E9498018EEF91E00E949601E0918902A7
:100BF000F0918A02EE0FFF1FEC50FF4FC591D49188
:100C000083E092E00E949601BE0180E090E040E126
:100C10000E9498018FE291E0DF91CF910C940A023B
:100C2000CF92DF92EF92FF920F931F93CF93DF93B8
:100C3000CDB7DEB72C970FB6F894DEBF0FBECDBF91
:100C40008C016AE072E0CE0101960E94D602BE01DC
:100C50006F5F7F4FC8010E946D027C01CE0101963B
:100C60000E94B702EF2859F5B801CE0107960E94FD
:100C7000BC02BE01695F7F4FCE0101960E94500306
:100C8000CE0107960E94B702CE0101960E94620231
:100C90006B017C0184E090E00E94AF0D8FE1C80EF3
:100CA000D11CC6010E94C003B60180E090E00E9402
:100CB000AF0D0E94A505CE0101960E94B70265E125
:100CC00072E0CE0101960E94D602BE016F5F7F4F97
:100CD000C8010E946D027C01CE0101960E94B702FC
:100CE000EF2841F5B801CE0107960E94BC02BE0173
:100CF000695F7F4FCE0101960E945003CE01079697
:100D00000E94B702CE0101960E946202709388028F
:100D100060938702609187027091880282E090E080
:100D20000E94AF0D1092480310924703CE01019626
:100D30000E94B7026DE172E0CE0101960E94D602D8
:100D4000BE016F5F7F4FC8010E946D027C01CE0122
:100D500001960E94B702EF2821F5B801CE0107964F
:100D60000E94BC02BE01695F7F4FCE0101960E94C6
:100D70005003CE0107960E94B702CE0101960E9451
:100D80006202709384026093830260918302709187
:100D9000840288E090E00E94AF0DCE0101960E948F
:100DA000B70263E272E0CE0101960E94D602BE0154
:100DB0006F5F7F4FC8010E946D027C01CE010196DA
:100DC0000E94B702EF2801F5B801CE0107960E94F4
:100DD000BC02BE01695F7F4FCE0101960E945003A5
:100DE000CE0107960E94B702CE0101960E946202D0
:100DF000709301016093000184E090E00E94AF0DC8
:100E0000CE0101960E94B7026EE272E0CE01019619
:100E10000E94D602BE016F5F7F4FC8010E946D0223
:100E20007C01CE0101960E94B702EF28F1F5609196
:100E300094027091950280919602909197020E947F
:100E40005302B801CE0107960E94BC02BE01695F41
:100E50007F4FCE0101960E945003CE0107960E945B
:100E6000B702CE0101960E946202609394027093D1
:100E700095028093960290939702609194027091EC
:100E8000950280919602909197020E942A026091A9
:100E900094027091950280919602909197020E941F
:100EA0005302CE0101960E94B70263E372E0CE01C5
:100EB00001960E94D602BE016F5F7F4FC8010E945B
:100EC0006D027C01CE0101960E94B702EF2849F520
:100ED000B801CE0107960E94BC02BE01695F7F4F38
:100EE000CE0101960E945003CE0107960E94B702E0
:100EF000CE0101960E94620270938A026093890279
:100F0000CB010E94C0036091890270918A0280E047
:100F100090E00E94AF0D0E94A505CE0101960E94AF
:100F2000B70268E372E0CE0101960E94D602BE01CC
:100F30006F5F7F4FC8010E946D027C01CE01019658
:100F40000E94B702EF2831F481E090E090934803CB
:100F5000809347036CE372E0CE0101960E94D602B3
:100F6000BE016F5F7F4FC8010E946D027C01CE0100
:100F700001960E94B702EF2831F482E090E090934E
:100F800048038093470360E472E0CE0101960E941B
:100F9000D602BE016F5F7F4FC8010E946D027C01C7
:100FA000CE0101960E94B702EF2821F40E945A0454
:100FB0000E94180266E472E0CE0101960E94D602F9
:100FC000BE016F5F7F4FC8010E946D027C01CE01A0
:100FD00001960E94B702EF2831F483E090E09093ED
:100FE0004803809347036DE472E0CE0101960E94AE
:100FF000D602BE016F5F7F4FC8010E946D027C0167
:10100000CE0101960E94B702EF2831F489E090E00A
:10101000909348038093470361E572E0CE01019607
:101020000E94D602BE016F5F7F4FC8010E946D0211
:101030007C01CE0101960E94B702EF2869F510925B
:1010400098021092990210929A0210929B0281E0EB
:101050008093020110928C0210928D0210928E02E7
:1010600010928F0210928B021092900210929102B5
:1010700010929202109293028091870290918802BE
:1010800090938602809385028091870290918802D6
:1010900090939D0280939C0266E572E0CE010196DA
:1010A0000E94D602BE016F5F7F4FC8010E946D0291
:1010B0007C01CE0101960E94B702EF2851F484E032
:1010C00090E090934803809347030E945A040E9443
:1010D00018026CE572E0CE0101960E94D602BE01B4
:1010E0006F5F7F4FC8010E946D027C01CE010196A7
:1010F0000E94B702EF2831F485E090E09093480316
:101100008093470361E672E0CE0101960E94D60209
:10111000BE016F5F7F4FC8010E946D027C01CE014E
:1011200001960E94B702EF2831F487E090E0909397
:1011300048038093470367E672E0CE0101960E9460
:10114000D602BE016F5F7F4FC8010E946D027C0115
:10115000CE0101960E94B702EF2831F486E090E0BC
:1011600090934803809347036CE672E0CE010196AA
:101170000E94D602BE016F5F7F4FC8010E946D02C0
:101180008C01CE0101960E94B702012B81F480915F
:10119000900290919102A0919202B091930280935B
:1011A000980290939902A0939A02B0939B022C9676
:1011B0000FB6F894DEBF0FBECDBFDF91CF911F9168
:1011C0000F91FF90EF90DF90CF900895EF92FF92F4
:1011D0000F931F93CF93DF93CDB7DEB762970FB610
:1011E000F894DEBF0FBECDBF7C016FE271E0CE018F
:1011F00001960E94D60200E010E00E151F0564F46F
:101200008BE393E00E94E90A682FCE0101960E94C9
:1012100087020F5F1F4FF1CF60E772E0CE010796A4
:101220000E94D602BE01695F7F4FCE0101960E94E7
:101230006D028C01CE0107960E94B70210161106AE
:101240001CF560E772E0CE0107960E94D602BE014F
:10125000695F7F4FCE0101960E946D029C0140E0C4
:1012600050E0BE016F5F7F4FCE010D960E94EB02F2
:10127000CE010D960E941006CE010D960E94B70277
:10128000CE0107960E94B702CE0101960E94B702D6
:1012900062960FB6F894DEBF0FBECDBFDF91CF913F
:1012A0001F910F91FF90EF900895CF92DF92EF92F0
:1012B000FF920F931F93CF93DF936C017A018B0101
:1012C000C0E0D0E0CE15DF0589F0D8016D918D0129
:1012D000D601ED91FC910190F081E02DC6010995B8
:1012E000892B11F47E0102C02196ECCFC701DF915A
:1012F000CF911F910F91FF90EF90DF90CF900895C5
:10130000FC01918D828D981761F0828DDF01A80F0D
:10131000B11D5D968C91928D9F5F9F73928F90E02F
:1013200008958FEF9FEF0895FC01918D828D98179E
:1013300031F0828DE80FF11D858D90E008958FEFDB
:101340009FEF0895FC01918D228D892F90E0805CA4
:101350009F4F821B91098F73992708958EE992E020
:101360000E94A20921E0892B09F420E0822F089530
:10137000FC01848DDF01A80FB11DA35ABF4F2C9132
:10138000848D90E001968F739927848FA689B78901
:101390002C93A089B1898C9180648C93938D848DDA
:1013A000981306C00288F389E02D80818F7D8083A9
:1013B0000895EF92FF920F931F93CF93DF93EC0169
:1013C00081E0888F9B8D8C8D981305C0E889F98901
:1013D000808185FD24C0F62E0B8D10E00F5F1F4F1E
:1013E0000F731127E02E8C8DE8120CC00FB607FC8E
:1013F000FACFE889F989808185FFF5CFCE010E9477
:10140000B809F1CF8B8DFE01E80FF11DE35AFF4FB4
:10141000F0820B8FEA89FB898081806207C0EE89A8
:10142000FF896083E889F98980818064808381E015
:1014300090E0DF91CF911F910F91FF90EF90089571
:10144000CF93DF93EC01888D8823C9F0EA89FB896B
:10145000808185FD05C0A889B9898C9186FD0FC062
:101460000FB607FCF5CF808185FFF2CFA889B98937
:101470008C9185FFEDCFCE010E94B809E7CFDF91B7
:10148000CF91089580E090E0892B29F00E94AE0969
:1014900081110C94000008953FB7F8948091D70310
:1014A0009091D803A091D903B091DA0326B5A89BF7
:1014B00005C02F3F19F00196A11DB11D3FBFBA2FE6
:1014C000A92F982F8827820F911DA11DB11DBC0146
:1014D000CD0142E0660F771F881F991F4A95D1F70B
:1014E000089585ED8093BC008091BC0084FDFCCF05
:1014F00010927402089540918B03262F30E0240F40
:10150000311D21323105DCF4209174022430C9F4FC
:10151000FC0180E090E0861758F430918B03219114
:10152000DC01A559BC4FA30FB11D2C930196F3CF3D
:1015300080918B03680F60938B0380E0089581E0B6
:10154000089582E00895E0917F02F0918002309743
:1015500029F0109276021092750209940895CF93A3
:10156000DF93AC01E0917D02F0917E023097F1F0C3
:1015700090917802809177029817C0F090E0292F1F
:1015800030E02617370754F4D901A55BBC4FEA01B8
:10159000C20FD31F88818C939F5FF1CF1092780286
:1015A00060937702CB01DF91CF910994DF91CF91C6
:1015B00008950895E091780280917702E81730F459
:1015C000F0E0E55BFC4F808190E008958FEF9FEFA6
:1015D00008959091780280917702981750F4E92F3E
:1015E000F0E0E55BFC4F208130E09F5F9093780254
:1015F00002C02FEF3FEFC90108958091770290E07C
:1016000020917802821B91090895CF93DF9300D037
:10161000CDB7DEB7CB01642F49835A830E947B0A82
:101620004981842F5A81952F0F900F90DF91CF9190
:101630000895CF93DF931F92CDB7DEB7698361E042
:10164000CE0101960E947B0A81E090E00F90DF912D
:10165000CF9108951F920F920FB60F9211242F93DE
:101660003F934F935F936F937F938F939F93AF932A
:10167000BF93EF93FF938EE992E00E94B809FF9128
:10168000EF91BF91AF919F918F917F916F915F91FA
:101690004F913F912F910F900FBE0F901F90189573
:1016A0001F920F920FB60F9211242F938F939F9337
:1016B000EF93FF93E091AE02F091AF028081E09151
:1016C000B402F091B50282FD12C090818091B70200
:1016D0008F5F8F732091B802821751F0E091B702AB
:1016E000F0E0E256FD4F958F8093B70201C08081F4
:1016F000FF91EF919F918F912F910F900FBE0F90BF
:101700001F90189590E0FC01EC5BFE4F3491FC01BA
:10171000E052FF4F2491FC01E453FF4FE491EE238C
:1017200009F43BC0332339F1333091F038F43130D0
:10173000A9F0323001F584B58F7D12C0373091F0B9
:101740003830A1F03430B9F4809180008F7D03C02F
:10175000809180008F77809380000DC084B58F7753
:1017600084BD09C08091B0008F7703C08091B00024
:101770008F7D8093B000F0E0EE0FFF1FE854FF4F25
:10178000A591B4918FB7F894EC91611103C02095A5
:101790002E2301C02E2B2C938FBF08958F929F92E2
:1017A000AF92BF92CF92DF92EF92FF926B017C01DA
:1017B0000E944C0A4B015C01C114D104E104F10404
:1017C000F1F00E944C0ADC01CB0188199909AA09A1
:1017D000BB09883E9340A105B10570F321E0C21A10
:1017E000D108E108F10888EE880E83E0981EA11C5C
:1017F000B11CC114D104E104F10419F7DDCFFF904D
:10180000EF90DF90CF90BF90AF909F908F90089512
:101810002FB7F8946091D3037091D4038091D503CE
:101820009091D6032FBF08951F920F920FB60F927B
:1018300011242F933F938F939F93AF93BF938091E6
:10184000D3039091D403A091D503B091D6033091E6
:10185000D20323E0230F2D3720F40196A11DB11DE3
:1018600005C026E8230F0296A11DB11D2093D203C7
:101870008093D3039093D403A093D503B093D6035E
:101880008091D7039091D803A091D903B091DA0346
:101890000196A11DB11D8093D7039093D803A09307
:1018A000D903B093DA03BF91AF919F918F913F918C
:1018B0002F910F900FBE0F901F9018951F920F92AF
:1018C0000FB60F9211242F933F934F935F936F9313
:1018D0007F938F939F93AF93BF93EF93FF938091E9
:1018E000B900887F803609F49CC068F5883209F415
:1018F0005BC090F4803109F454C038F4882309F4B3
:10190000F6C0883009F44DC0F6C0883109F44CC0E7
:10191000803209F45DC0EFC0803409F468C048F437
:10192000803309F455C0883309F0E5C08093AE03D5
:10193000D8C0803509F44FC0883509F45DC08834BB
:1019400009F0D9C0D6C0883909F4C7C0A8F48837CF
:1019500009F467C038F4883609F463C0803709F4A5
:1019600060C0C9C0883809F4B8C0803909F45FC0C4
:10197000803809F0C0C05BC0803B09F486C038F4F1
:10198000803A09F466C0883A09F47FC0B4C0803C4C
:1019900009F4A7C0883C09F4A4C0883B09F48AC0B4
:1019A000AAC08091D10310C09091D0038091CF0341
:1019B000981770F5E091D00381E08E0F8093D003EB
:1019C000F0E0E155FC4F80818093BB0085EC86C040
:1019D0008093AE038EC0E091D00381E08E0F8093A0
:1019E000D0038091BB00F0E0E155FC4F80839091E3
:1019F000D0038091CF036EC0E091D00381E08E0FC1
:101A00008093D0038091BB00F0E0E155FC4F8083D0
:101A10008091730281116DC081E08093720284EA2B
:101A200061C083E0809374021092AD03CFCF8091A8
:101A3000AD03803208F051C0E091AD0381E08E0F1C
:101A40008093AD038091BB00F0E0E357FC4F8083AF
:101A5000BDCF85EC8093BC00109274028091AD03E1
:101A6000803230F4E091AD03F0E0E357FC4F108298
:101A70006091AD0370E0E0917902F0917A028DE817
:101A800093E009951092AD0336C084E08093740210
:101A900010928C0310928B03E0917B02F0917C02F8
:101AA000099580918B03811105C081E080938B03A0
:101AB00010926B03E0918C0381E08E0F80938C0376
:101AC000F0E0E559FC4F80818093BB0090918C033E
:101AD00080918B03981708F479CF85E88093BC0038
:101AE0000AC085EC8093BC001092740204C010926E
:101AF000AE030E94710AFF91EF91BF91AF919F9148
:101B00008F917F916F915F914F913F912F910F90A6
:101B10000FBE0F901F9018951F920F920FB60F9245
:101B200011240F900FBE0F901F9018950C946C13FA
:101B30000C9464131F93CF93DF93EC010E94980DD4
:101B4000182FCE0101960E94980D282F30E0922F79
:101B50008827810F911DDF91CF911F9108950F93D9
:101B60001F93CF93DF931F92CDB7DEB78C0179839C
:101B70000E94960D7981672FC80101960F90DF9121
:101B8000CF911F910F910C94960D61E08BE00C9416
:101B9000820B60E08CE00E94820B60E08AE00E9491
:101BA000820B61E08CE00E94820B60E08CE00C9480
:101BB000820BEEE9F2E01382128288EE93E0A0E05D
:101BC000B0E084839583A683B78321E131E031833C
:101BD000208325EC30E03587248724EC30E03787FC
:101BE000268720EC30E0318B208B21EC30E0338BEA
:101BF000228B22EC30E0358B248B26EC30E0378BC7
:101C0000268B118E128E138E148EEBE3F3E013826B
:101C1000128284839583A683B78381E291E09183C6
:101C200080830895CF93DF93CDB7DEB72C970FB69F
:101C3000F894DEBF0FBECDBF789484B5826084BDBA
:101C400084B5816084BD85B5826085BD85B58160C0
:101C500085BD80916E00816080936E00109281003E
:101C600080918100826080938100809181008160F9
:101C700080938100809180008160809380008091BA
:101C8000B10084608093B1008091B0008160809346
:101C9000B00080917A00846080937A0080917A000D
:101CA000826080937A0080917A00816080937A00CC
:101CB00080917A00806880937A001092C10085E656
:101CC00090E0909382028093810261E085E10E941E
:101CD000820BE091AE02F091AF0282E08083E0914E
:101CE000AA02F091AB021082E091AC02F091AD0239
:101CF00080E180831092B602E091B202F091B302CB
:101D000086E08083E091B002F091B1028081806131
:101D10008083E091B002F091B1028081886080837D
:101D2000E091B002F091B102808180688083E091FF
:101D3000B002F091B10280818F7D80838BE00E94A0
:101D4000D7008AE00E94D7008CE00E94D70080E094
:101D500090E00E949A0D90938A028093890282E01B
:101D600090E00E949A0D9093880280938702809160
:101D7000870290918802892B09F408C2809187021A
:101D8000909188028F3F910508F000C284E090E0B6
:101D90000E949A0D9093010180930001009711F029
:101DA000819734F081E090E09093010180930001ED
:101DB00086E090E00E94980D182F87E090E00E9446
:101DC000980DF82E88E090E00E94980D082F89E089
:101DD00090E00E94980D4F2D50E060E070E0762F6B
:101DE000652F542F4427410F511D611D711D10E0B7
:101DF00020E030E0980111270027400F511F621F9B
:101E0000731F90E0A0E0B0E0B82FAA279927882799
:101E1000840F951FA61FB71F80939402909395027D
:101E2000A0939602B09397028091940290919502AC
:101E3000A0919602B0919702883B9B40A105B10505
:101E4000D0F480E391E00E940A0288EB9BE0A0E0DE
:101E5000B0E08093940290939502A0939602B09381
:101E600097026091940270919502809196029091F0
:101E700097020E942A028091870290918802909393
:101E800086028093850280918502909186029093CC
:101E90009D0280939C0288E090E00E949A0D9093AE
:101EA0008402809383028091830290918402892B23
:101EB00009F473C180918302909184028436910564
:101EC00008F06BC185E591E00E9496018091850242
:101ED000909186020E94180287E691E00E94960186
:101EE00080919C0290919D020E94180288E791E0E7
:101EF0000E94960180918302909184020E941802B0
:101F00008091890290918A020E94C0030E94A505D7
:101F10008DE891E00E94960180918702909188025D
:101F20000E94180289E991E00E9496016091940252
:101F30007091950280919602909197020E945302AF
:101F400080910001880F8093BA0083EA9AE0909311
:101F50007C0280937B028FEA9AE090937A028093CE
:101F60007902109278021092770210927602109203
:101F700075021092740281E08093730210927202D3
:101F800061E082E10E94820B61E083E10E94820BAA
:101F90008091B9008E7F8093B9008091B9008D7FC8
:101FA0008093B90088E48093B80085E48093BC00F6
:101FB00087EA91E00E949601609100017091010111
:101FC000072E000C880B990B97FF03C00E94D901C4
:101FD00003C04AE00E9498018DE291E00E94F60061
:101FE00086EE98E090937E0280937D0281EA94E0F1
:101FF0009093800280937F028DE00E94D70011E0D1
:102000008EE992E00E94A209892B19F16FE271E03A
:10201000CE0107960E94D6020E94080197FD06C0D5
:10202000682FCE0107960E948702F6CFBE01695F36
:102030007F4FCE0101960E94BC02CE0101960E9404
:102040001006CE0101960E94B702CE0107960E94AB
:10205000B7020E9491040E945A04893C910538F00D
:1020600020918702309188028217930760F52091B2
:102070008502309186022817390728F59093860249
:1020800080938502209185023091860240918302DF
:1020900050918402241B350B30939D0220939C02A7
:1020A00040919C0250919D022091870230918802BC
:1020B0004217530740F420918702309188023093F1
:1020C0009D0220939C0220919C0230919D02281732
:1020D000390708F058C00E94080C20910201222301
:1020E00069F0109202010E94080C609398027093AC
:1020F000990280939A0290939B0245C0C0909802E7
:10210000D0909902E0909A02F0909B02DC01CB0102
:102110008C199D09AE09BF09809094029090950298
:10212000A0909602B090970288159905AA05BB0564
:1021300050F1C0929002D0929102E0929202F092FD
:10214000930280938C0290938D02A0938E02B093A1
:102150008F0210938B020E94080C60939802709378
:10216000990280939A0290939B0261E08DE00E9415
:10217000820B6AE070E080E090E00E94CE0B60E0AD
:102180008DE00E94820B0E94420A3ACF84E690E0E2
:102190009093880280938702F9CD84E190E0909338
:1021A0008402809383028ECE97FB072E16F4009450
:1021B00007D077FD09D00E94E81007FC05D03EF457
:1021C000909581959F4F0895709561957F4F0895E3
:1021D000AA1BBB1B51E107C0AA1FBB1FA617B7074D
:1021E00010F0A61BB70B881F991F5A95A9F7809569
:1021F0009095BC01CD010895EE0FFF1F0590F4915D
:10220000E02D0994CF93DF938230910510F482E0A2
:1022100090E0E091DD03F091DE0320E030E0C0E0EB
:10222000D0E0309711F14081518148175907C0F033
:102230004817590761F482819381209719F09B8395
:102240008A832BC09093DE038093DD0326C0211583
:10225000310519F04217530718F49A01BE01DF0146
:10226000EF010280F381E02DDCCF2115310509F16A
:10227000281B390B2430310590F412968D919C91D6
:1022800013976115710521F0FB019383828304C0CC
:102290009093DE038093DD03FD01329644C0FD017F
:1022A000E20FF31F81939193225031092D933C93B8
:1022B0003AC02091DB033091DC03232B41F42091C1
:1022C0000501309106013093DC032093DB0320915C
:1022D0000301309104012115310541F42DB73EB7BA
:1022E0004091070150910801241B350BE091DB035D
:1022F000F091DC03E217F307A0F42E1B3F0B281725
:10230000390778F0AC014E5F5F4F2417350748F06E
:102310004E0F5F1F5093DC034093DB038193919337
:1023200002C0E0E0F0E0CF01DF91CF9108950F937C
:102330001F93CF93DF93009709F48CC0FC01329771
:10234000138212820091DD031091DE030115110545
:1023500081F420813181820F931F2091DB03309122
:10236000DC032817390779F5F093DC03E093DB03EE
:1023700071C0D80140E050E0AE17BF0750F412968C
:102380002D913C911397AD012115310509F1D9012A
:10239000F3CF9D01DA013383228360817181860F3F
:1023A000971F8217930769F4EC0128813981260F62
:1023B000371F2E5F3F4F318320838A819B81938318
:1023C0008283452B29F4F093DE03E093DD0342C0C2
:1023D0001396FC93EE931297ED01499159919E014A
:1023E000240F351FE217F30771F480819181840F68
:1023F000951F029611969C938E93828193811396DA
:102400009C938E931297E0E0F0E0D80112968D91A4
:102410009C911397009719F0F8018C01F6CF8D91DC
:102420009C9198012E5F3F4F820F931F2091DB03F9
:102430003091DC032817390769F4309729F410929A
:10244000DE031092DD0302C0138212821093DC03BC
:102450000093DB03DF91CF911F910F910895A0E0CE
:10246000B0E0E5E3F2E10C94A813EC01009721F44D
:10247000CB010E940211B8C0FC01E60FF71F9C01BE
:1024800022503109E217F30708F4ACC0D9010D91CD
:102490001C91119706171707B0F00530110508F4C5
:1024A0009FC0C80104978617970708F499C0025087
:1024B0001109061B170B019311936D937C93CF01A8
:1024C0000E9497118DC05B01A01AB10A4C01800EC9
:1024D000911EA091DD03B091DE0340E050E0E12CBD
:1024E000F12C109709F44AC0A815B905D1F56D90E3
:1024F0007C901197630182E0C80ED11CCA14DB04E2
:1025000080F1A3014A195B096A0182E0C80ED11C5F
:102510001296BC9012971396AC91B5E0CB16D104ED
:1025200040F0B282A38351834083D9016D937C93A1
:102530000AC00E5F1F4FC301800F911FF9019183E5
:102540008083EB2DFA2FE114F10431F0D7011396BB
:10255000FC93EE93129744C0F093DE03E093DD0307
:102560003FC08D919C9111974817590708F4AC0111
:102570007D0112960D90BC91A02DB3CF8091DB030D
:102580009091DC0388159905E1F446175707C8F4C4
:102590008091030190910401009741F48DB79EB79B
:1025A0004091070150910801841B950BE817F9072A
:1025B000C8F4F093DC03E093DB03F90171836083DB
:1025C0000FC0CB010E9402117C01009759F0A801B5
:1025D000BE010E94FE12CE010E949711C70104C0E5
:1025E000CE0102C080E090E0CDB7DEB7EEE00C9403
:1025F000C41381E090E0F8940C940C14FB01DC010E
:1026000002C001900D9241505040D8F70895FB014F
:10261000DC0101900D920020E1F70895FB0151913A
:102620005523A9F0BF01DC014D9145174111E1F798
:1026300059F4CD010190002049F04D914015411110
:10264000C9F3FB014111EFCF81E090E001970895BC
:102650001F93FC0199278827BC01E894119110323F
:10266000E9F3193010F01E30C8F31B3251F01D325F
:1026700049F4689406C00E944F13610F711D811DBB
:10268000911D119110531A30B0F33EF4909580953E
:10269000709561957F4F8F4F9F4F1F910895592FD0
:1026A000482F372F262F660F771F881F991F660F19
:1026B000771F881F991F620F731F841F951F660F56
:1026C000771F881F991F0895F999FECF92BD81BD8C
:1026D000F89A992780B50895262FF999FECF1FBA49
:1026E00092BD81BD20BD0FB6F894FA9AF99A0FBE3B
:1026F00001960895052E97FB1EF400940E949113F5
:1027000057FD07D00E94DB1307FC03D04EF40C9456
:10271000911350954095309521953F4F4F4F5F4F06
:10272000089590958095709561957F4F8F4F9F4F3D
:1027300008950E94FD13A59F900DB49F900DA49F36
:10274000800D911D112408952F923F924F925F9218
:102750006F927F928F929F92AF92BF92CF92DF92B1
:10276000EF92FF920F931F93CF93DF93CDB7DEB716
:10277000CA1BDB0B0FB6F894DEBF0FBECDBF0994AA
:102780002A88398848885F846E847D848C849B8401
:10279000AA84B984C884DF80EE80FD800C811B810F
:1027A000AA81B981CE0FD11D0FB6F894DEBF0FBE3E
:1027B000CDBFED010895A1E21A2EAA1BBB1BFD019E
:1027C0000DC0AA1FBB1FEE1FFF1FA217B307E40710
:1027D000F50720F0A21BB30BE40BF50B661F771F68
:1027E000881F991F1A9469F7609570958095909548
:1027F0009B01AC01BD01CF010895A29FB001B39F21
:10280000C001A39F700D811D1124911DB29F700DF9
:0C281000811D1124911D0895F894FFCF44
:10281C000100010000DF0380000100000000000047
:10282C0000D9095509A20980099409200A00000061
:10283C0000190B050BFD0AE90ADA0AD90A0D0A0080
:10284C006D696E5F6C61705F74696D652066726F27
:10285C006D20454550524F4D2077617320696E763F
:10286C00616C696400534D4152542053454E53459D
:10287C0020484947483A00534D4152542053454E45
:10288C005345205349473A00534D41525420534528
:10289C004E534520435554204F46463A004D494E21
:1028AC00205349474E414C3A004D494E204C415023
:1028BC002054494D453A00656E61626C656420494F
:1028CC00324320736C617665206D6F6465204944DA
:1028DC003A20007365744368616E6E656C4D6F646D
:1028EC00756C653A200070726F6772616D43686138
:1028FC006E6E656C4D6F64756C653A200043555275
:10290C0052454E545F4348414E4E454C2000204D9D
:10291C00687A00204845583A2000494E49545F5384
:10292C00455455500053525353494D530053535330
:10293C00434F005345545F4932435F494400534D64
:10294C004C54005356545800544156004C545400A7
:10295C00435252534900475253534953004657561A
:10296C00005352535400435253534900474D4C5457
:10297C0000475353434F004753535300494C5400A3
:02298C00230026
:107800000C94343C0C94513C0C94513C0C94513CE1
:107810000C94513C0C94513C0C94513C0C94513CB4
:107820000C94513C0C94513C0C94513C0C94513CA4
:107830000C94513C0C94513C0C94513C0C94513C94
:107840000C94513C0C94513C0C94513C0C94513C84
:107850000C94513C0C94513C0C94513C0C94513C74
:107860000C94513C0C94513C11241FBECFEFD8E036
:10787000DEBFCDBF11E0A0E0B1E0ECE9FFE702C060
:1078800005900D92A230B107D9F712E0A2E0B1E065
:1078900001C01D92AD30B107E1F70E942D3D0C945F
:1078A000CC3F0C94003C982F959595959595959582
:1078B000905D8F708A307CF0282F295A8091C0000B
:1078C00085FFFCCF9093C6008091C00085FFFCCF60
:1078D0002093C6000895282F205DF0CF982F809127
:1078E000C00085FFFCCF9093C6000895EF92FF92F1
:1078F0000F931F93EE24FF2487018091C00087FD22
:1079000017C00894E11CF11C011D111D81E4E8164B
:1079100082E4F8068FE0080780E0180770F3E09132
:107920000401F091050109958091C00087FFE9CF1E
:107930008091C6001F910F91FF90EF9008950E94D3
:10794000763C982F8091C00085FFFCCF9093C600B5
:1079500091362CF490330CF09053892F089597555D
:10796000892F08951F930E949F3C182F0E949F3CCF
:107970001295107F810F1F9108951F93182F882350
:1079800021F00E94763C1150E1F71F9108951F935A
:10799000182F0E94763C803249F0809103018F5F5E
:1079A000809303018530C1F01F9108958091C0003C
:1079B00085FFFCCF84E18093C6008091C00085FFE5
:1079C000FCCF1093C6008091C00085FFFCCF80E102
:1079D0008093C6001F910895E0910401F091050184
:1079E00009951F9108950E94763C803241F0809164
:1079F00003018F5F80930301853081F008958091AA
:107A0000C00085FFFCCF84E18093C6008091C00058
:107A100085FFFCCF80E18093C6000895E0910401CA
:107A2000F09105010995089540E951E08823A1F0FE
:107A30002D9A28EE33E0FA013197F1F721503040CA
:107A4000D1F72D9828EE33E0FA013197F1F7215064
:107A50003040D1F7815061F708953F924F925F9285
:107A60006F927F928F929F92AF92BF92CF92DF924E
:107A7000EF92FF920F931F93CF93DF93000080E16B
:107A80008093C4001092C50088E18093C10086E015
:107A90008093C2005098589A259A81E00E94143D24
:107AA00024E1F22E9EE1E92E85E9D82E0FE0C02ECA
:107AB00010E1B12EAA24A394B1E49B2EA6E58A2E50
:107AC000F2E57F2EE0E26E2E79E4572E63E5462E36
:107AD00050E5352E0E94763C8033B1F18133B9F107
:107AE000803409F46FC0813409F476C0823409F41B
:107AF00085C0853409F488C0803531F1823521F1A3
:107B0000813511F1853509F485C0863509F48DC0BC
:107B1000843609F496C0843709F403C1853709F423
:107B200072C1863709F466C0809103018F5F80932C
:107B30000301853079F6E0910401F0910501099582
:107B40000E94763C803351F60E94F33CC3CF0E94E2
:107B5000763C803249F78091C00085FFFCCFF092DF
:107B6000C6008091C00085FFFCCF9092C600809136
:107B7000C00085FFFCCF8092C6008091C00085FFC9
:107B8000FCCF7092C6008091C00085FFFCCF609250
:107B9000C6008091C00085FFFCCF5092C600809146
:107BA000C00085FFFCCF4092C6008091C00085FFD9
:107BB000FCCF3092C6008091C00085FFFCCFB09210
:107BC000C60088CF0E94763C863808F4BDCF0E945C
:107BD000763C0E94F33C7ECF0E94763C803809F4CC
:107BE0009CC0813809F40BC1823809F43CC1883942
:107BF00009F48FC080E00E94C73C6CCF84E10E94F2
:107C0000BD3C0E94F33C66CF85E00E94BD3C0E94D3
:107C1000F33C60CF0E94763C809306010E94763C44
:107C2000809307010E94F33C55CF0E94763C80333D
:107C300009F41DC183E00E94BD3C80E00E94C73C66
:107C400049CF0E94763C809309020E94763C809343
:107C5000080280910C028E7F80930C020E94763C79
:107C6000853409F415C18091080290910902892B8D
:107C700089F000E010E00E94763CF801E85FFE4FDA
:107C800080830F5F1F4F80910802909109020817AF
:107C9000190788F30E94763C803209F045CF809125
:107CA0000C0280FF01C16091060170910701660F0F
:107CB000771F7093070160930601A0910802B091AD
:107CC00009021097C9F0E8E0F1E09B01AD014E0F09
:107CD0005F1FF999FECF32BD21BD819180BDFA9A17
:107CE000F99A2F5F3F4FE417F50799F76A0F7B1F4B
:107CF00070930701609306018091C00085FFFCCF5F
:107D0000F092C6008091C00085FFFCCFB092C60003
:107D1000E1CE83E00E94C73CDDCE82E00E94C73CFA
:107D2000D9CE0E94763C809309020E94763C8093D3
:107D300008028091060190910701880F991F909386
:107D40000701809306010E94763C853409F4A6C0A1
:107D500080910C028E7F80930C020E94763C8032D0
:107D600009F0B8CE8091C00085FFFCCFF092C6002C
:107D7000609108027091090261157105B9F140E046
:107D800050E080910C02A82FA170B82FB27011C0E2
:107D9000BB2309F45CC0E0910601F0910701319624
:107DA000F0930701E09306014F5F5F4F46175707B7
:107DB000E8F4AA2369F3F999FECF209106013091E6
:107DC000070132BD21BDF89A90B58091C00085FFB2
:107DD000FCCF9093C6002F5F3F4F30930701209355
:107DE00006014F5F5F4F4617570718F38091C00099
:107DF00085FDE5CE8091C00085FFF8CFE0CE81E023
:107E00000E94C73C67CE0E94763C803209F08CCE3F
:107E10008091C00085FFFCCFF092C6008091C00029
:107E200085FFFCCFE092C6008091C00085FFFCCFAB
:107E3000D092C6008091C00085FFFCCFC092C600E2
:107E40008091C00085FFFCCFB092C60043CEE09188
:107E50000601F091070194918091C00085FFFCCF4D
:107E60009093C6009CCF80E10E94C73C33CE0E9415
:107E7000763C0E94763C182F0E94763C112309F430
:107E800083C0113009F484C08FE00E94C73C22CE29
:107E900080910C02816080930C02E5CE80910C02EF
:107EA000816080930C0259CF809107018823880F4D
:107EB000880B8A2180930B02809106019091070123
:107EC000880F991F90930701809306018091080203
:107ED00080FF09C080910802909109020196909359
:107EE000090280930802F894F999FECF1127E091D6
:107EF0000601F0910701C8E0D1E08091080290915D
:107F00000902103091F40091570001700130D9F34B
:107F100003E000935700E89500915700017001308D
:107F2000D9F301E100935700E89509901990009169
:107F3000570001700130D9F301E000935700E89534
:107F40001395103498F011270091570001700130FB
:107F5000D9F305E000935700E895009157000170B0
:107F60000130D9F301E100935700E895329602976A
:107F700009F0C7CF103011F00296E5CF112480919F
:107F8000C00085FFB9CEBCCE8EE10E94C73CA2CD19
:0C7F900085E90E94C73C9ECDF894FFCF0D
:027F9C00800063
:040000030000780081
:00000001FF
